:1000000012C019C018C017C016C015C014C013C044
:1000100012C011C010C00FC00EC00DC00CC00BC06C
:100020000AC009C008C011241FBECFE5D4E0DEBF5E
:10003000CDBF02D024C0E4CF8FEF87BB84BB81BB90
:100040008A984CE251E02FEF829B15C018BA15BA7E
:1000500012BA88EB9BE0FA013197F1F70197D9F7D3
:1000600028BB25BB22BB88EB9BE0FA013197F1F757
:100070000197D9F7E9CF18BA15BA12BAE5CFF894B3
:02008000FFCFB0
:00000001FF
